:020000040001F9
:20B000009861002009B1010023B10100D5B001000000000000000000000000000000000001
:20B0200000000000000000000000000027B10100000000000000000029B101002BB101007F
:20B0400061E401002DB1010065EB01002DB101002DB10100000000004DDA01002DB10100B5
:20B060002DB101002DB101002DB101002DB101002DB101002DB101002DB101002DB10100D8
:20B080002DB1010031E801002DB101002DB1010099E901002DB10100A1E901002DB101002D
:20B0A0002DB101002DB10100000000000000000000000000000000000000000000000000D2
:20B0C0000348854600F00AF90048004789100200986100200848704502D1EFF3098009E0F8
:20B0E000EFF308800549064A884201D8904201D88D460020034B1847FDFFFFFF9861002047
:20B1000098410020BDDB01000321094802680A430260084802680A43026007488047074841
:20B120000047FEE7FEE7FEE7FEE7FEE7FEE700002405004054050040C1E90100C1B001004B
:20B1400030B50B46014600202022012409E00D46D5409D4205D31D469540491B2546954007
:20B1600040191546521E002DF1DC30BD70B500242546002801DA01244042002901DA01253C
:20B180004942FFF7DDFFAC4200D04042002C00D0494270BDF0B51FB40646002082B00546FD
:20B1A0004024019100901BE0019922460F46304600F082F8049A059B801A994110D31046EC
:20B1C0001946224600F068F8361A8F410197224601200021009F00F05FF838184D410090A2
:20B1E0002046641E0028DFDC019B00982946324607B0F0BD004870473085020010B5034641
:20B200001C460C43A40703D009E010C9121F10C3042AFAD203E00C781C70491C5B1C521E00
:20B22000F9D210BDD2B201E00270401C491EFBD270470022F6E710B513460A460446194642
:20B24000FFF7F0FF204610BD421C0178401C0029FBD1801A7047C9B203E003788B4203D0E4
:20B26000401C521EF9D20020704730B504460020034600E05B1C934203D2E05CCD5C401B07
:20B28000F8D030BD0321001D401E037812021A43491EF9D51046704710B5202A04DB0146F7
:20B2A000203A9140002010BD914020239C1A0346E3401943904010BD10B5202A04DB08460B
:20B2C000203AD040002110BD0B46D340D0402024A21A91400843194610BD0000064C0125E2
:20B2E000064E05E0E36807CC2B430C3C98471034B442F7D3FFF7E8FE348A0200548A0200E2
:20B3000070B58C180578401C6B075B0F01D10378401C2A1106D10278401C03E006780E703F
:20B32000401C491C5B1EF9D12B0705D40023521E0DD40B70491CFAE70378401CCB1A921C5F
:20B3400003E01D780D70491C5B1C521EF9D5A142D8D3002070BD70B5150094B004000CAACB
:20B360002B00080004A90291039201F071F94342584129006B88019501331BB2009302AE56
:20B380008000002382594431200000F00AF829782000490049B201F0F9FA4342584114B0DD
:20B3A00070BDF0B5B3B01F0038AB00269E5F0023399D089003910992EB561AA81A000293C1
:20B3C00001F02DFC029B00249B000493049A039B94466344029A19002AA8059301F01FFC78
:20B3E0002C57002F00D17EE0220039000AA801F016FC22001AA912A801F011FC22002AA9CA
:20B4000022A801F00CFC2B000AAA2AA91AA800F07BF92B00A4331C680AAA2B002AA91AA897
:20B42000A0472B000AAA22A912A800F06DF9023E37B2002F5EDC099B01241B6812AA1F00B2
:20B4400027409C437F01640112ABD6191B1922AAD719069314192300069A3900300000959E
:20B4600000F0CCF82B1D12AA1AA90AA801F04EFB0AA92B003A00080001F032FB0AA92B0049
:20B48000039A080001F02CFB0AA9029B2A1D080001F0A1FA0AA92B00059A080001F020FB33
:20B4A0000AA92B003200080001F01AFB3B00320021000698009500F042F82B000AAA22A9D9
:20B4C00012A800F021F9029A12A9089801F0A7FB049A089B944663441800029A22A901F0EC
:20B4E0009EFB33B0F0BD21000AA801F01DFA01230A937EE73900099801F0C2FB01234642EE
:20B5000046419C1B640112AB1B19069322AB1C19760112AB9B19079322AB9E193300079A22
:20B5200021000698009500F069F8013F00952300069A3100079800F002F83FB279E7F0B51E
:20B54000140005001F008BB0109B00911B7802005BB20193109B21001E1D330002A801F031
:20B56000D5FA02A9109A080001F0CAFA109B02AA2900280001F0B4FA109B02AA210020000B
:20B5800001F0AEFA3300009A3900380001F0BEFA109A390002A801F0B3FA02A933002A00F8
:20B5A000080001F0B3FA02A933002200080001F0ADFA33002A002100200001F0A7FA00997C
:20B5C000109B2200080001F08BFA330002AA2900200001F09BFA109B22003900380001F043
:20B5E0007FFA3300009A3900380001F08FFA019A02A9200001F013FB0BB0F0BDF0B5160092
:20B6000007001D009DB0229B02911B7802005BB20393229B31001C1D230004A801F076FADA
:20B6200004A9229A080001F06BFA229B04AA3900380001F055FA229B04AA3100300001F06A
:20B640004FFA039B029A00932900230004A801F0ABF92300029A2900280001F057FA2300D2
:20B660003A0031000CA801F051FA0299229B0CAA080001F035FA039B32000093390023007A
:20B680000CA801F091F9229A2900300001F038FA23000CAA3100300001F038FA2300320091
:20B6A000390014A801F032FA229B14AA2900280001F016FA2300029A2900280001F026FA8A
:20B6C000229A04A914A801F01BFA14A923000CAA080001F01BFA23003A0014A90CA801F0DC
:20B6E00015FA0CA9229B04AA080001F0F9F9029A23000CA9100001F009FA039A14A9380026
:20B7000001F08DFA1DB0F0BDF0B516001C0007000D0089B01A003100684601F0F1F923001C
:20B720006A463900380001F0DBF9230032006946684601F0D5F923006A462900280001F09D
:20B74000CFF909B0F0BD000010B5CAB2010002480BF04CFC10BDC0461C3D0020002300B5C8
:20B7600083B001930A1C042900D904220100D2B201A8FFF743FDFF2301980340242B0CD023
:20B7800007D8152B03D1064B1B789B0705D403B000BD0222A23B9343F9D100F0E3FEF6E798
:20B7A0008C3C0020F0B5C646804600B50F001D000D490E4B0E4C0B600E4B20001B681600C3
:20B7C0004B600BF035FB43462380012302200A492B405A000B78678083431343A6800B70E2
:20B7E00004BC9046F0BDC046383D0020543D00201C3D0020282200208C3C0020002A00D1F4
:20B800007047013A8B5C8354F8E70000F0B5002797B004910393DF570500390010001400C3
:20B8200001F0B4F8002800D08CE0039A049906A801F066F9039B06AA29000EA801F050F968
:20B8400006A90800039A01F05BF90499039B0800220001F045F9039A2100200001F050F9A3
:20B86000039B22001E1D330029002800009701F09BF83300220021002000009701F094F884
:20B88000330022002900200001F040F9039B22002900280001F024F933002A00290020001B
:20B8A000009701F081F83300009722002900280001F07AF82B68DB0746D5320029002800D4
:20B8C00001F00DF839000590280001F099F9214B059AFB189B00EB181968D2070A431A601C
:20B8E000039A2900200001F00BF933000EAA2100200001F00BF933000EAA2100200001F02F
:20B9000005F90EA908003300220001F0FFF8039B0EAA2900280001F0E3F806AA33001000C7
:20B92000290001F0F3F83A002100280001F077F93A000499200001F072F93A0006A9049846
:20B9400001F06DF917B0F0BD3900280001F058F9C6E7C046FFFFFF3F70B5114B0C001B885A
:20B96000002B17D0002818D0102910D80D4D0A0001002800FFF742FC10220021121B281902
:20B98000FFF759FC01220020074B1A7070BD03204042FBE701204042F8E702204042F5E787
:20B9A000983B00209C3B0020AC3B002010B5034B1B78002B01D000F003F810BD493D002096
:20B9C000F0B5D6464F464646C0B5C34CA0B02388002B00D176E0E3225200934213D0002382
:20B9E0002380F023BD4D2A681340202B34D0A02B00D19FE0102B00D181E020B01CBC90464D
:20BA00009946A246F0BDB64D002128000AF090FC01286DD0B34D10AF2B78002B41D00021BB
:20BA20000122B148FFF707FC0023AC4DAF4A2B601370AF4B186809F010FC3900AD4804F02D
:20BA4000E5FD022800D0FFE0E3235B002380F0232A681340202BCAD1A34D2B789B07CCD573
:20BA60001F236B449846002342460021137009A81C220893FFF7DFFB9F4B99461F889F4BF4
:20BA80009F4200D981E09E4B9F4200D892E29D4B9C466744BBB2202B77D89B4A9B00D3584E
:20BAA0009F469A4808A904F0B1FD022800D0B7E02B78002B01D000F0F2FCE3235B00874D29
:20BAC0002380C4E7924B864D1B6828006B60914B91492B600AF03CFC9049012301228B488C
:20BAE0000AF047FC002128000AF022FC012891D1072308A985480B7004F0B2FD8AE70224C0
:20BB0000794D2B781C4200D177E77B4B844999461B888B4200D92BE382498B4200D8BAE25A
:20BB2000814A944663449BB2632B2ED87F4A9B00D3589F46A22A00D159E331D8A02A00D1E7
:20BB400040E3A12A00D058E7674D2B789B0700D453E76A464024002312191370664B99466C
:20BB60001B88002B01D100F003FCEA22FF3293420BD10121002008F061FC6A460B231219A8
:20BB800011006248137004F06BFD4A4600231380002202212B7852008B4313432B702CE7B9
:20BBA000A42A00D029E7504D2B789B0700D424E7514B5F4A99461B88934201D100F0FDFBC0
:20BBC0005C498B4201D100F0F2FB002BDDD15A4F3B804B461A80594B594C9E790022023E1A
:20BBE00006232100380000960BF034F9012800D8E5E002280DD000234A463B804D4B13809F
:20BC000033000122210038000BF024F9012800D8D5E0112310A90B703C4804F021FDB4E70E
:20BC200020226B4641209B1800211D3A68441E78FFF701FB01233E702B70112E00D9B1E13A
:20BC4000404BB6009B599F46109800F08BFCE3235B002380FBE63C4B394C98463B4E4346CA
:20BC600000222100300018330BF004FC012800D8A5E04A462A4B13800AF0E0FAFF24204096
:20BC8000132800D1B6E30AF0D9FA0440142C00D095E04023039310AB0293102301932C4BE2
:20BCA00020212C4A00932C48102307F013FE04230593254B29491A00039301930523143238
:20BCC000049200930C22264B029417A807F033FD4A46244B138055E2EC3C00204C3D002066
:20BCE000DC3C0020483D0020C83C0020493D0020503D0020CC3C0020F03C002086030000F3
:20BD0000650300009AFCFFFFB0870200B83C002028220020543D002030750000C43C0020FA
:20BD2000D5020000710200008EFDFFFF348802001F02000023020000F83C0020E081020075
:20BD40001C3D0020C4890200103C0020F43C0020208A02009C3B00206C3C0020148A020054
:20BD60000C8A02001A030000DD4CDE4E0B22210030000BF07FFB012821D910AF1022DA498F
:20BD80003800FFF73BFA1022D84914A8FFF736FA3A0020212023D648009707F0A7FD2022BB
:20BDA0003900D448FFF761FA00281ED04A46D24B1380E7E1D14C2378012B00D16DE2012298
:20BDC000E7E6C74CCE4F0322210038000BF0E6FC0128F4D9CB4B1B88002B00D0F0E210225D
:20BDE0000021C248FFF727FABE4EC74B182219002000984604F0F4FC00234A463380C34B3A
:20BE000013802CE7B64CB74E0322210030000BF031FB0128D3D94A46BD4B13800020BD49B2
:20BE200007F0A8FC0128CADD4A46BB4B13800020AF4ABA4907F0F4FC0128C0DDA84C40224F
:20BE40002000B44904F0DBFC00234A46AC4F3B80B34B1380B7E7A24CA24E0A222100300007
:20BE60000BF008FB0128AAD910222000AD4904F0C6FC00234A46A24F3B80AB4B138016E03C
:20BE8000974C9F4F0C22210038000BF087FC012895D920222000974904F0A2FC00234A46AE
:20BEA000904E3380A14B1380D7E78D4C944F0D22210038000BF072FC012800D87FE710226E
:20BEC0002000894904F08CFC00234A46854E3380974B13804AE7824C824E0A2221003000FA
:20BEE0000BF0C8FA012800D869E710227E4908A8FFF784F910228B490CA8FFF77FF98D4F14
:20BF000010AC3800102108AA20231030009407F0EDFC202221007748FFF7A7F9002800D1A2
:20BF20003EE14A46844B138023200AF097F9002800D044E704234246137041467F4804F08C
:20BF40008FFB22E6664C6E4F0C22210038000BF025FC012800D832E720222000654904F01F
:20BF60003FFC00234A465F4E3380754B1380B4E75B4C634F0D22210038000BF00FFC012875
:20BF800000D81CE7202220005A4904F038FC00234A463B806B4B1380D6E700232B70594BC3
:20BFA0001B887B80684B1B68002B00D180E5380098477DE5654B9F425CD0654A92469742B6
:20BFC00046D1474C474E0B22210030000BF052FA012800D8F3E6534F1021380009F0CCF8BB
:20BFE000414B1022190008A89A46FFF707F9390010220CA8FFF702F940230393303B4D4ED5
:20C000000193544B0C21009308AA20235248029607F060FC3900102208A8FFF7EFF8102289
:20C0200051460CA8FFF7EAF8324B1021009308AA2023300007F05AFC10223900200004F0AB
:20C04000DEFB00234A462E4F3B80444B138091E7002F00D099E501210C00414A127814406E
:20C06000114200D14BE13F4A1278012A00D0B5E14A461380E2200AF0F1F8041E00D09EE64E
:20C0800004234246414613702C4804F0E9FA4B4600221C807DE5002B00D076E50121324BF6
:20C0A0005879014200D01DE15B881649120A1A400A80002B00D1E5E1002A00D0E2E14A464D
:20C0C0002A4B1380E3200AF0C9F8002800D076E61F236B4498460223424613702DE7C0462D
:20C0E0001C3D0020F43C0020FC3C00209C3B00206C3C0020F03B0020CA020000AC3B002042
:20C10000F83C0020983B0020103C0020D2020000820200002C3C00208B020000B03B0020F4
:20C120008F0200000C3D0020B6020000B2020000BA020000583D002086030000B83C00208B
:20C140006F0300006A030000983C00203A030000460300009C8702009C3C00206603000000
:20C160008C3C0020943C0020E081020072020000C5229200934200D1D0E00AD9C94A934276
:20C1800000D002E512200AF069F80028A0D00122FFE4C54A934250D00A329342F2D0F4E40E
:20C1A000380007F0E1FE0122C04B1A704A46C04B138021200AF052F80323002800D1BAE647
:20C1C0000122E6E4BB4D2B789B0701D4FFF715FCB94B99461B88002B00D1D3E000234A4661
:20C1E000138002222B7893432B70FFF706FCB14D2B789B0701D4FFF700FCAF4B1E889946F3
:20C20000002E00D197E0AD4B9E4200D0BDE4AC4CAC4F0022210038000BF0C0FA012800D93A
:20C22000F7E40122B5E41422414608A8FFF71DF800280DD04A469C4B138012200AF00EF8AE
:20C24000002800D0BBE51F2302226B441A7010AF9D4C390027000C2220000C37FEF7CEFF4C
:20C26000102213A93800FEF7C9FF1C222100102008F097FF002849D0C4234A469B001380D8
:20C2800080E70121914A13788B4313708AE601218E4A13780B43137084E68D4C1021200004
:20C2A00008F06AFF8B4F210010223800FEF7A6FF3800102288491030FEF7A0FF20233A0092
:20C2C00020210097854807F011FB7D4C20223900200004F094FA00234A467A4F3B80804BCE
:20C2E0001380CFE579480078014200D1DCE6E12009F0B4FF1F236B4498461C701DE6E020DD
:20C3000009F0ACFF042310A90B70BDE60121380008F094F8C5234A469B001380112009F0CD
:20C320009DFF002800D04AE51F236B44984601234246137001E66B4B1422191D0120984634
:20C3400008F02BFF4342434114225B4241461A4001230B80644B5A4C5B88043220004B80F6
:20C3600004F04DFA4A46574F544B3E80138050E7102008F00DFFEA234A46FF33138001226C
:20C38000FFF707FC504C1C222100102008F005FF00286FD1200000210C3008F04FF809232D
:20C3A00010AF3B703900514804F05AF916E74E4B434C9E79434F023E22E4424FFFF70BFC58
:20C3C00000231F214A4C6944237048480E330B7004F046F94A46474B1380ECE4384C10226A
:20C3E0002000454904F0FCF94B465246434E1A803780E8E540230393303B0193404B10AF8C
:20C400002021354A009335481023029707F062FA04230593334B0C2298461C0003931423FB
:20C420000293434601930523143400933549364B049417A807F07FF9002800D048E44346D5
:20C44000198B0022043989B219835B18132903D81A7001339C42FBD11422012008A908F010
:20C460009CFE002800D1DEE614224146012008F098FEEDE60021002007F0E0FF082310AF25
:20C480003B708FE70E4C40222000204904F0A8F900234A46194E33801D4B1380B4E410AF82
:20C4A000FFF7BDFA1A03000006030000943C00207E030000C83C0020F03C00200D020000B9
:20C4C0001C3D0020F83C00209C3C00208C3C00200C3D0020F03B00209C3B00206C3C00203C
:20C4E000AE020000103C0020E0810200B83C0020AC3B0020A3020000FC3C0020F43C002055
:20C50000208A0200148A02000C8A0200B03B00207D0200000D4B10B501220C0018600C4994
:20C520000C4808F043FE1C21102008F02FFE002C01D0094B1C6007F0DFF9040004230122F2
:20C540000649074809F015FF200010BD28220020A5C60100503D0020983C0020D83C002098
:20C56000CC3C002030B5184C83B023680190002B09D00B20A22B04D1144801A904F070F8C8
:20C58000002003B030BD0121019A11482260114A1360114A1170114AFE311370104A13809F
:20C5A000104A13800122FEF746FE0F4D286808F054FE0E4B22001968286808F037FE04003F
:20C5C000FFF7F4F92000DCE74C3D0020CC3C0020C83C0020543D0020493D0020483D0020A4
:20C5E000EC3C0020F03C0020503D00202822002010B5134882B009F0B7FE124C200009F019
:20C60000B3FE114B1B78002B0CD1F0220F4B1B681340102B0ED0202B07D06B46D91D20002E
:20C6200004F01EF8002002B010BD6B46D91D04230B70F4E76B46D91D02230B70EFE7C0460A
:20C64000CC3C0020B83C0020483D00204C3D0020F7B50E00019202229F5E243301001A0070
:20C6600030001C0000F03BF90125002812D13A001F211F32D3170B409B185B115BB25B0191
:20C6800005009F4206DA3900300000F0F9FA0500681E854131002200019800F020F928001A
:20C6A000FEBD000010B5084A136801331360074B5B799B0703D4064B1B78002B00D110BD3A
:20C6C000FFF77EF9FBE7C046543D0020E0810200493D00200022014B1A707047943C0020AC
:20C6E000F0B585B00191050011000198140000F067FA184B1B68002B02D1002005B0F0BD54
:20C70000A3001E1F02936301181A012300B25B42C3404027AE1903930E4B02991B68280035
:20C7200098470028E9D03268039B210013403360280000F02BF9002803D0013F002FEBD198
:20C74000DBE722002900019800F0F9F80128F4D1D4E7C046903C0020F8B507000E001500E0
:20C7600040241F210222AB5E30001F33DA170A402900D218521152B22431FFF7B1FF00288E
:20C7800001D10020F87D550031003800FEF7E3FD002803D1013C002CE3D1F2E70120F1E7B4
:20C7A00000487047EC860200014B18607047C046903C0020F0B51C000023A9B010AE06AFE9
:20C7C0007E60E35608AD03930123E3560490059228001A0006950293FFF710F8029B0499C5
:20C7E0005A0018A8FFF70AF82300320029002800FFF72EFF154B05001E68002E08D08300EA
:20C80000DE59211D039A3000FFF76AFF00281AD06B425D41638818A901331BB20093019445
:20C82000AD00330008007A59FEF7BBFD029A18A90598FEF7E3FF217818A8490049B200F032
:20C84000A5F84342584129B0F0BDC046903C0020F0B5002795B00190CF570D00FBB25900CA
:20C8600049B2029300F092F800230400984228D12B1D18003A000199039300F075F823006A
:20C8800001281ED1019BBE009E193A003100281D00F06AF82300012813D131002A0004A836
:20C8A00000F02EF92B000CAEA8331B682A00019930009847029B013B5BB2002B04DA6342B7
:20C8C0006341180015B0F0BD990004AA525871584A401443EFE710B5FFF7BAFF10BD30B593
:20C8E0000300002010C920CA641910C310C920CA6C4110C310C920CA6C4110C310C920CAB9
:20C900006C4110C310C920CA6C4110C310C920CA6C4110C310C920CA6C4110C310C920CA0B
:20C920006C4110C3404130BD002310B51C005AB2914200DC10BD9A0084500133F7E730B518
:20C9400089B015000A000100684600F073F929000400684600F01AF843424341601E84414B
:20C960006400181B09B030BD10B5013A52B2002A01DA002010BD9300C458CB589C4203D8F9
:20C98000F3D201204042F5E70120F3E70022130010B554B2A14202DC5842584110BD940003
:20C9A000045901322343F4E770B500261D0004AB04009E57FFF793FF002806D132002100BC
:20C9C0002800FFF7D1FF012804D02A002100200000F030F970BDF0B50E00A3B00700190095
:20C9E000300015001C00FFF7D1FF002805D021003800FFF799FF23B0F0BD31000126220032
:20CA000002A800F00CF9220029000AA800F007F9210012A8FFF788FF21001AA81296FFF7B1
:20CA200083FF22000AA902A8FFF79EFF002805D1220012A9380000F0F2F8DCE7029B019381
:20CA4000334209D1210002A800F0DAF82200290012A800F0EDF9E4E70A9B0193334207D1CE
:20CA600021000AA800F0CCF8220029001AA8F0E700281ADD02A90AAA080000F0DBF82100E1
:20CA800002A800F0BDF822001AA912A8FFF76CFF002804DA12A92A000800FFF720FF12A984
:20CAA0001AAA080000F0C6F8D0E70AA902AA080000F0C0F821000AA800F0A2F8220012A9FC
:20CAC0001AA8FFF751FF002804DA1AA92A000800FFF705FF1AA912AA080000F0ABF8C3E795
:20CAE00030B51C000023050091B0E3566846AC3400F019F8236869462800984711B030BD15
:20CB000010B513000A00FFF7EBFF10BD70B504001D0000F08FF8002804D02A002100200062
:20CB2000FFF7DDFE70BDF0B5DE4657464E464546E0B5013B9B0098465B00994600230024A7
:20CB40000025002601B4002702E0370040463F1A9A46A346AC46B646F01B1458C859030C58
:20CB600080B2250CA4B21E006E436343454360431C041B0C00195E412C042D0C00196E412C
:20CB800053465C4665461B1874410020454176460437474501DCB742DADD0098835123463C
:20CBA0002C46002504364645CDDD4E45CDDD835101BC3CBC90469946A246AB46F0BD00006E
:20CBC0000300013949B2002905DA0020013149B2814205D170478A00D258002AF1D0F4E7FE
:20CBE000064A8A189200D358002B04D101394901081800B2EEE75B080130F5E7FFFFFF3FAF
:20CC000010B50024890041180B1F814200D810BD19684A0822431A60CC071900F4E700231B
:20CC200030B55CB2A24200DC30BD9C000D5901330551F6E730B5002310C920CA641B10C0D1
:20CC400010C920CAAC4110C010C920CAAC4110C010C920CAAC4110C010C920CAAC4110C0D4
:20CC600010C920CAAC4110C010C920CAAC4110C010C920CAAC4110C05B415842584130BD78
:20CC80001F234A1119401E3B8B4092001058184070470000F0B50C0000278BB0082205002F
:20CCA000FFF7BDFFE36A02AA0593236B11000693636B10000793A36B04970893E36B039755
:20CCC00009930297FFF70BFE02AA060029002800FFF705FE236B02AA0593636B11000693DA
:20CCE000A36B36180793E36B100008930997FFF7F6FD02AA361829002800FFF7F0FD236A01
:20CD000036180293636A02AA0393A36A29000493A36B28000893E36B0797099306970597C2
:20CD2000FFF7DDFD636AA26B0293A36A06920393E36AE26B0493636B361805930893236A6C
:20CD40000792290002AA28000993FFF7C8FDE36A36180293236B02AA0393636B2900049358
:20CD6000236A28000893A36A0797099306970597FFF760FF236B361A0293636B02AA03930B
:20CD8000A36B29000493E36B28000593636A07970893E36A06970993FFF74CFF636B361ACC
:20CDA0000293A36B02AA0393E36B29000493236A28000593636A08970693A36A0793236BF9
:20CDC0000993FFF737FFA36B361A0293E36B02AA0393636A29000593A36A28000693E36A5F
:20CDE00004970793636B089701930993FFF722FF341A0E4EBC420EDA321D29002800FFF724
:20CE00006EFD2418F8D40BB0F0BD321D29002800FFF710FF241A002CF7D1301D08222900C0
:20CE2000FFF7A2FD0128F0D1EDE7C046EC86020070B50368040015000026DB0704D50A0091
:20CE40000100FFF74CFD060029002000FFF7D8FE002E08D0044BED188023AD0064192268C6
:20CE60001B061343236070BDFFFFFF3FF0B58DB0040015000F002022002104A8FEF7DBF96D
:20CE8000032304930023EB562A00390020002E1D0393FFF735FE330004AA21002000FFF7CC
:20CEA00035FE2B003A0021002000FFF719FE2A00039B84320093210033002000FFF774FDA0
:20CEC0000DB0F0BDF0B4374E374C30780122374D0021374B00280CD0012820D0022835D0FE
:20CEE00003281AD10020401C2768C0B2002F45D046E0401C2768C0B2002F01D16428F8D380
:20CF0000C828216001D36A6000E099682948C180294858601A602A603270F0BC704700201D
:20CF2000401C2768C0B2002F01D16428F8D3C828216001D36A6000E099681E480180FF2046
:20CF40006B3058601A602A60022014E00020401C2768C0B2002F01D16428F8D3C82821601E
:20CF600001D36A6000E0996812484180134858601A602A6003203070F0BC70476428B2D3C9
:20CF8000C82803D3084621606A6001E021609868084CA0800A4858601A602A603170F0BC01
:20CFA0007047000092200020007100400070004000750040942000206A0200006A08000020
:20CFC0006A040000FFB5A9B0064617469C2102A8329D339CFEF72DF955202070AB2060706D
:20CFE0002A98801CA070E67027712C9860712A98062600281BD000216D1EC00703D0687819
:20D000000121A0716D1C2A9840080DD07218D7B26B78E355521CAB78401E891CD2B2AD1C5E
:20D020000006A354000EF1D12A983018C6B23348042500270190002069460870684639DF38
:20D04000002801D002F0A2FB68460178A94200D929460170C8B200280CD00198C0193ADF74
:20D06000002801D002F092FB684600783918281ACFB2C5B2002D15D0214928464843DAD068
:20D080002049214A096800BF00BF00BF00BF00BF00BF00BF00BF914200D000BF0138F2D1F5
:20D0A000002DC8D115480178A155761CF1B242786254491CC9B282786254491CCDB2C0788D
:20D0C0006055A81EC1B202AAE01C6D1C06F0E2FEAD1DEDB2EA1E02A9E01CFEF78FF8A81E01
:20D0E000C1B2A01C00F02EFB60556D1CE9B2000A6054491CC8B22DB0F0BD00001E2B00207F
:20D10000A50200001C2200200024F400F0B5A9B0982101A8FEF78DF8002520A8057728A9DE
:20D120009F4809F09DFC00281FD19E4C9E49A078002828A800787CD0E2789C4E002AB05447
:20D1400015D18A7D012A03D08A7D022A05D006E00222E270B0700D3000E00E3020712079DB
:20D16000922804D9A5706570E58029B0F0BDE078401CC0B2E0702779B842F6D1887D01283E
:20D1800003D0887D02287DD0D9E05A213170A5217170874930460A788649874E042A1ED23A
:20D1A00013007B441B79DB189F4419010C10C0192038C27F002A12D1807F00280FD17560A2
:20D1C00031600CE07D483160706008E010227C497C48FEF713F87B4830607848706027A857
:20D1E000009001AB3A467149734808F019F901AF002804D06E48007803281BD09FE06846D7
:20D20000C1797148017020A80095007FC01E002808DD009979180A79CA700099491C00916D
:20D220008142F6DB69468879801C88710020B91C83E088E0102265496248FDF7DFFF614850
:20D2400030605E48706027A8009001AB22795749594808F0E5F800281CD010225C49594880
:20D26000FDF7CCFF574830605448706027A8009001AB22794D49504808F0D2F800281DD0A9
:20D28000544900E03AE00878401E0006000E087030D054E06846C1794B48017020A8009510
:20D2A000007FC01E00281CDD009979180A79CA700099491C00918142F6DB12E06846C1790C
:20D2C0004148017020A80095007FC01E002808DD009979180A79CA700099491C0091814254
:20D2E000F6DB69468879801C8871B91C002001F0EFF824E02E490220087020E0BF1EF9B2AE
:20D300002A4800F01FFAE080E178711820398A7FC97F0902511889B2884210D1207901AA08
:20D32000C01EC1B2701C06F04DFD227901A9701C093AFDF763FF1D49002001F0C9F8A57019
:20D340006570E57029E00122552801D05A2802D16378002B04D0AB2807D0A52805D01AE0B4
:20D3600062700002208129B0F0BD6378002B12D0A270E5802389181880B2174B2081984268
:20D3800002D18A7529B0F0BD144A9042FAD10220887529B0F0BDA5706570E58029B0F0BDC0
:20D3A000B825002088200020982400202E2B00206720002055200020EC290020CC290020CD
:20D3C000E3240020DC29002066200020F32400200325002065200020A55A0000AB55000038
:20D3E000F0B53A4CA9B026782E9F0025002E6AD1012626708E2963D8354CA67D012E03D05B
:20D40000A47D022C38D03DE005460E46314C00216846009302920171982103A8FDF709FFB4
:20D420005A202070A5206070A6702B48E57000782071029A6271009B0722A3710021684650
:20D4400001710079B0420BD269460879385CA054521C0879D2B2401C08710879B042F3D3D9
:20D4600003AB21461D4808F0C5F80546024603A92046FDF7C3FE05E0164C00970194FFF7BA
:20D48000A1FD054614212846FDF75AFE461C0024002E15D9771EBC4207D120461421484381
:20D4A000291A0C4A89B2801805E014202146414308480818142102F0B1FD641CB442EAD384
:20D4C00002490020087029B0F0BD00008820002098240020882A002066200020EC29002092
:20D4E00010B503F009F903F021F903F031F903F01DF910BD30B5DBB0FC211BA8FDF799FE97
:20D50000464908681A900020009001900290039004900590069007900F9010901190129024
:20D5200013903FA03CC8179516941593149200681890081D1DC808AD1DC58A694869C9693A
:20D540000D920E910C9003F0E5F83A4A3A4C1078552802D15078AA285BD0FF2201321AA963
:20D560003448FDF74BFE192208A92046FDF746FE03F0C2F803F0DAF803F0EAF803F0D6F860
:20D5800010212E48FDF755FE0D2221462B48FDF735FE012292022A492A4802F0F1FF2A4D78
:20D5A0006C460FCD0FC42868049014220FA96846103DFDF75AFE002829D0142214A96846EF
:20D5C000FDF753FE002822D0204801783D291ED03D2404704470142229461D48FDF70EFE24
:20D5E0001C481E4944701C480A880280498841801B481C2244701B491B48FDF7FFFD03F0A3
:20D600007BF803F093F803F0A3F803F08FF85BB030BD16A1132008F0E7FBB1E7C880020073
:20D63400B8240020C024002055200020CC250020B825002014C80300382500203A25002058
:20D65400582500205A2500205CC803007825002034C803007A2500201B5B306D5B495D20A4
:20D674003A20666C6173682072656164206F6B313131313131313131310D0A1B5B306D0064
:20D69400014903200860704764070050F0B4234B234DD97801222348002910D0847E002C97
:20D6B4000DD1EA70012906D0022906D003291BD0042904D116E0102200E05022027781761A
:20D6D400C17E184A037F0F46174C184E527F1F4301D0002A0BD0F460002A19D0521E42775C
:20D6F400F0BC7047C822E9E7C2760622E6E7B460002B03D05B1E0377F0BC70470029FBD070
:20D71400491EC1760821417706210177F0BC704702490020C870E870F0BC7047482000208E
:20D734004F2000209C2000200000000200050050F0B400234C1E002C16DD0126421ECD0768
:20D75400F607F54201D05378521C56780025641008D097789B19D678ED19921C9BB2ADB2C7
:20D77400641EF6D15A1993B2491E02D4405CC01883B2F0BCD84380B2704718B500221346B6
:20D794006C46237023788B4206D22378C35C9A18237892B25B1CF4E7D04380B218BD000039
:20D7B400F8B545498879401CC0B28871CA79521CD2B2CA71642A02D2002088710AE06422F7
:20D7D400CA71322806D900208871087A002839D000200872384B39481C784079E7099C7806
:20D7F4005A79E5095C78FF01E609DC78ED01E409F601E4011B798446002825D0304880789B
:20D81400C00702D060460A281ED0087A002820D052085200FD2002402749402003434A711F
:20D834000B710F708D700A216046FDF77FFC002820D0244B204A185C30435070585C2043ED
:20D85400D070F8BD0120C4E700200872BF2003400B711948BF230179194001714670C47049
:20D8740016480178490614490BD502231A43520852000AE01048134A4670515C2143C1706C
:20D89400F8BDFD231A4001231A434A7100790A21FDF74CFC002808D00A4B074A185C384394
:20D8B4001070585C28439070F8BD0348054A0770515C29438170F8BD9C20002048200020CC
:20D8D4004F200020F880020010B51A48417A491CCAB200214272192A0BD2FF22027041702F
:20D8F4008270C17042717F230371847A002C03D10AE0012282724172017041708170C17032
:20D9140001714171012010BD0B48027041708270C1700371427109488078002805D00221B8
:20D93400054801F0B2F8002010BD0721024801F0ACF8F8E79C200020BE20002048200020B6
:20D9540010B503F081F8002807D108480AF096F9002802D1064904200860064840690120BB
:20D97400000701694069204610BD0000250B02006820002000100010F0B58C46069C5521BD
:20D99400059D2170AA2161706146891CA170E070227106206146637100291AD000236D1E02
:20D9B400C90703D069780123A1716D1C61464A080DD0C618F1B26F786754761CA978521EF4
:20D9D4009B1CF6B2AD1C1206A155120EF1D16044C0B2A11C8E46811ECBB29C4600225B1EDB
:20D9F400002B18DD714665460126ED07F607491EF54201D04A78491C4E7800255B1008D0B5
:20DA14008F789219CE78ED19891C92B2ADB25B1EF6D151198AB26146491E03D47346595C73
:20DA340089188AB2D1432154401CC0B2090A2154401CC0B2F0BD0000F0B50024FF2085B07E
:20DA54000130534F534D01222146009446193368012B05D17B68134202D00023144333600E
:20DA7400001D5200491C80B20429EFD34B494A48052209681202036889180491012B06D127
:20DA94000021016040070443049800690090444F200714D00126002526420CD04148AA006C
:20DAB400111808690969C004C00E8903BA58890F002A00D0904776006D1C042DECD3002C92
:20DAD40064DA00200290401E59E0354D291940310E78B006800E72B2521C43D0C30803A990
:20DAF40047077F0F0122C95CBA400A423AD0B1092F182026BE57B600AD59002D02D003295B
:20DB140002D005E003292DD102AEF75C1743F754052636078700BF1907263602BE19B4466B
:20DB340036686F46B603FB5CB60F1A4202D0022E02D017E0032E15D1032910D1022E23D03B
:20DB540002236246166803273F04BE43166016681B041E431660019A521CD2B20192002DC1
:20DB740000D0A847641C042CAFD3019800280DD0049800690099884208D000900298039005
:20DB9400002004460190A0E70323DAE705B0F0BD00630040006000407C6100400C810200B7
:20DBB4000C3000200065004010B5826905A1012008F036F907F0E8FF07F0ECFF0028FBD1FE
:20DBD40000BE10BD1B5B313B33316D484152444641554C543A4552524F523A486172646675
:20DBF40061756C742050433A25780D0A000000000320164A10211060121D1060144B202058
:20DC140098609960134914480968052200BF00BF00BF00BF00BF00BF00BF00BF814200D024
:20DC340000BF013AF2D11022DA60052200BF00BF00BF00BF00BF00BF00BF00BF814200D0F5
:20DC540000BF013AF2D12020D860704710070050000500501C2200200024F40003201F4A06
:20DC740010211060121D10601D4B2020D860D9601C491D480968052200BF00BF00BF00BFD9
:20DC940000BF00BF00BF00BF814200D000BF013AF2D120229A60052200BF00BF00BF00BFC5
:20DCB40000BF00BF00BF00BF814200D000BF013AF2D110229A60052200BF00BF00BF00BFB5
:20DCD40000BF00BF00BF00BF814200D000BF013AF2D12020D8601020D860704710070050E6
:20DCF400000500501C2200200024F40000B5154A03211160121D1160134A144B12680121A4
:20DD140000BF00BF00BF00BF00BF00BF00BF00BF9A4200D000BF0139F2D10D4900222023D4
:20DD3400CB60C30702D010238B6001E01023CB60400820238B60521CD2B2082AEFD300F05F
:20DD540009F800BD100700501C2200200024F4000005005070B403201C4E00253060311D0B
:20DD7400086001201A4C2021A1601A4A1A491268052300BF00BF00BF00BF00BF00BF00BFBC
:20DD940000BF8A4200D000BF013BF2D12023E360356001E0401CC0B223691B09DB07DB0F10
:20DDB40001D06428F6D9052000BF00BF00BF00BF00BF00BF00BF00BF8A4200D000BF013872
:20DDD400F2D12020A06070BC7047000010070050000500501C2200200024F400F3B5CB782C
:20DDF40085B00E780D4602A90027019100971C46AA786878012100F038F90598012802D1C6
:20DE14002420694648728F494868002803D00020486007B0F0BD8B49012048608870A978DC
:20DE34008948072906D0082944D009297ED00A297DD1E8E02979FF220C46697912020902D3
:20DE5400944311400C43A97912020904944311400C43E9797B4A09060C4300215160916035
:20DE74001161D1601170062E75D1784A927C002A01D00A2770E0764B621E9A4277D80E46E4
:20DE9400C170FFF723FB20466E4CA060AD20800202F066FC02F040FC0120A070059860709A
:20DEB4006C48019000960023AA781946242000F0DCF8B9E06348816800297BD00178A142CA
:20DED40041D10178491C0170C168B41E80680919803081426EDA21465F48FDF7A0F98022D0
:20DEF400291D5D48FDF780F902F048FC554E5A49F3682246AD208002181802F059FC002889
:20DF140001D0032728E0002C1BDDE007C00F03D02979326989183161A0420EDA29180A793F
:20DF34003369D21832614979326901E011E012E089183161801CA042F0DBF0680019F06056
:20DF540072E00020E8E70078401E84426CD0052702E0062E0CD007273A4900204860886015
:20DF74000861C86008700599012958D05CE021E0344CE168A26891421CDBA168002919D09F
:20DF94002169C94321612A79FF2311466A791B02120299431A401143AA791B021204994369
:20DFB4001A401143EA79120611432269914203D00827D1E70127CFE7A1684160B121C1702D
:20DFD400FFF784FA059860700120A0700026214801900096AA7833463146242000F045F8E2
:20DFF4006660A6602661E66026701C4881784908490081700598012816D11448417800290B
:20E0140012D1C67310E0C078B1280DD1BFF34F8F14491348C860BFF34F8F00BFFDE70B49FA
:20E034004A78002A00D1C8736846064CC772A078002803D002A8059900F0D9FB002060609C
:20E0540007B0F0BD6C200020B824002098240020FF03010080200020082A00204F20002020
:20E074000400FA0500ED00E0704730B4039C2425029865702170A270E370606030BC704771
:20E09400F8B5CC4C607D052801D2401C0CE0CA4D05280BD032280FD26879FE2809D0FFF752
:20E0B40013FC012801D132206075F8BD06206075F2E700F00DFDF8BDA07D401CC0B2A075E3
:20E0D400192806D90020A075E07D002807D00020E0752E78F00604D500F0CEFCF8BD012001
:20E0F400F6E7B448DF2100793306024608402021002B05DAE37D002B02D00A43227100E089
:20E114002071AC48B707EF22F7234079002F05DA042630431040184060710EE0A548FB27A3
:20E13400407976073840002E03DA10221043184002E01040082210436071A8780028607994
:20E1540028D008436071FFF72BFB9B48032700780090000707260F221F23602100287CDAC0
:20E17400002525706570A570E57065712571E08B401C81B2E183208C401C80B220841928A9
:20E1940000D325848C484078142823D2322904D2257157E0DF210840D4E7642902D20121AE
:20E1B40021714FE0962901D227714BE0C82901D2267147E0FA2901D2227143E0FF222D3287
:20E1D400914201D223713DE0FF225F32914239D225712BE0282810D23229E0D36429E3D320
:20E1F4009629E5D3C829E7D3FA29EBD3FF222D32914227D20121217118E03C280BD2322974
:20E21400D2D36429D4D39629D6D3C829DAD3FA2918D227710AE050280AD23229C8D36429A5
:20E23400CAD39629CED3C8290CD22671E58309E0642813D23229BFD36429C3D3962901D203
:20E254002271E5830A21FCF771FF5C4A00280BD0105C2070505CA07077E009E0642800D123
:20E2740023712570A57070E02570505CA0706CE02079084020710020E0834F49208449786D
:20E29400002908D001200A2545438D4203D2401CC0B20A28F7D3E57A854202D8257B002D56
:20E2B40000D1E0720120207300291DD00A2545438D4203D2401CC0B20A28F7D3E17A81421A
:20E2D40000D2E072E07A0A2800D90A20E0720B280CD201007944097949188F44070B141961
:20E2F4001C232D272A3033000020E7E720794009400129E0E07D0028207901D080210FE051
:20E314004006400E20E021790120014321711CE0E07D002802D02079384315E020790121AD
:20E33400084311E0E07D002806D1F4E7E07D002802D02079104307E02079304304E0E07DDF
:20E354000028F6D020791843207100981A49800607D5002020706070A070E07020718020C8
:20E3740002E060794006400E6071154840780028607902D04022104301E0BF2210406071E9
:20E3940010482278027062784270A2788270E278C27022790271627942718878002804D049
:20E3B4000221084800F071FBF8BD0721054800F06CFBF8BD9C20002048200020F880020066
:20E3D40098240020BE200020F8B500250C460646002933D000276846077039DF002801D056
:20E3F40001F0CAF968460178A14200D92146017000290BD070193ADF002801D001F0BCF955
:20E41400684600782918201ACDB2C4B2002C15D00B4920464843DED00A490B4A096800BF76
:20E4340000BF00BF00BF00BF00BF00BF00BF914200D000BF0138F2D1002CCCD1F8BD0000B3
:20E45400A50200001C2200200024F400F8B5164D286800260127002811D02E601349012089
:20E474008860134847700020124C00902068002805D001682160416800988847F6E7686854
:20E49400002810D06E6009490220886008488770094C01252168002905D00868206049684C
:20E4B40028468847F6E7F8BD0001004000030040F82F00200030002008300020F0B500273A
:20E4D40095B00B9709970A970C970D9710970E970F97019702970397A04D0497059706973B
:20E4F4000797012608970C4602466E72607821286FD0FF286DD0211D012A11D0002A23D1FE
:20E51400202801D022281FD1A278012A4DD0022A66D0032A64D0D01F032867D2AE7368E0B3
:20E53400232801D025280FD1A278012A05D1E378102B02D12B7E012B08D000912178E378C8
:20E55400891EC9B2FEF742FF15B0F0BD0E22211D8348FCF749FE1022824901A8FCF744FE8F
:20E574000E227F4905A8FCF73FFE7F48817A01A83D2900900ED000235B221E212120FEF75E
:20E5940025FF7A4902200870794802F02FF82F7615B0F0BD01235B221E212120FEF716FFCA
:20E5B4007249032008707349EDE7227908A8027102224271704A137883715278C2716078BE
:20E5D400202807D000912178E378891EA278C9B216E019E009A900916122E37804210FE023
:20E5F40000912178E378891EC9B209E00A2A00D1EF7300912078E378801EC1B2A278607889
:20E6140000F0BCFB15B0F0BDA1785C48502979D013DC082909D004DC012964D00729F1D125
:20E6340003E0092901D00A29ECD1A87C0028E9D1012A68D0002A67D08BE05B2914D05C29CE
:20E654002AD05D293DD06429DCD1E07822788118891E062905DC4A49921E4018211DFCF7D1
:20E67400C3FDAE7015B0F0BDA87D0228FAD045A001F0C1FF2E760E2108A8017102214171BD
:20E694003D4910230A7882714978C17109A86122042100902020B3E7A87D0228E2D03EA0A3
:20E6B40001F0A9FF1022211D3F48FCF79DFD10213D4801F09FFF00235C221946212000970C
:20E6D4001CE0A87D0228CDD038A001F094FF01235D22002121200097FEF778FE234804214B
:20E6F400017015B0F0BD24250D2101260023012A0BD0002AF5D1009032462846FEF766FE9D
:20E7140015B0F0BD05E020E021E000903246284676E72578AD1E0D2DF2DC2A46211DFCF7A9
:20E7340063FD0D2D06D00D20411B264840190830FCF775FDFEF7CAFEBFF34F8F2349224845
:20E75400C860BFF34F8F00BFFDE7AE7301E06E756E7421461046FFF741FBD1E79824002000
:20E77400C42B0020CC290020D824002067200020EC290020652000204F200020C024002031
:20E79400482000207169616E7A686978696E786920200D0A000000007368657A68696D6901
:20E7B4006D61202000000000DC29002072656E677A68656E67746F6E6767756F20200D0AF0
:20E7D40000000000B82400200400FA0500ED00E038B5059D049C012D05D0002D02D1009493
:20E7F400FEF7F4FD38BD009400F0C8FA38BD08B501290AD0002907D141680091C3788278BE
:20E8140001784078FEF7E2FD08BD41680091C37882780178407800F0B1FA08BDF8B5224902
:20E834000020086048608860C8602049086048601F4FBC68002C35D01E4900264968FA68A8
:20E85400891A0D022D0A2068A84218D82D1A86192246107CE46900280FD0002010743B69E3
:20E87400002B07D0916950699847002805D000F083FF02E0516990698847002CE3D139788C
:20E894007878814206D1401CC0B27870022801D10020787000060849800D0E50012007496D
:20E8B40000050860F8BD0000401101400011014020210020001501403C21002000E200E048
:20E8D40004480078002803D110B500F0AFFA10BD70470000F0390020F8B515461822504364
:20E8F400274A8418E06A1834002804D0012815D0022842D13BE02269E068824203D8A36882
:20E91400181A801800E0101A401EA84235D30091E768A068C61BAE4213D81AE02269E0684E
:20E93400824203D8A368181A801800E0101A401EA84200D205460091E768A068C61BAE4227
:20E9540007D960682A46C019FCF74EFC7819E06014E060683246C019FCF746FC0098AF1B00
:20E9740081193A466068FCF73FFCE76006E02A46204600F091FA054600E000252846F8BD82
:20E99400F039002010B509F0A7F910BD10B506484068002805D08047002801D000F0ECFE9D
:20E9B40010BD02F027FB10BD4C2100202B48018CC9B2012917D1828C120714D1028D1206C8
:20E9D400130F03D1838D1B061B0F0FD0120F012A03D1838D1B061B0F08D0032A03D1828D90
:20E9F4001206120F02D0012907D012E01D4B1C4A5A60DA131C4B9A6102E0828C120708D14C
:20EA1400028D1206120F042A03D1828D1206120F0AD0012921D1818C09071ED1018D090631
:20EA3400090F0A2904D007E0104A01219160F5E7828D1206120F05D00D290ED1808D00062E
:20EA5400000F0AD10A480168012904D00949016001680129FCD1C02141617047C00F00F0F3
:20EA7400DFFF07C000050040006C00400006004000EC06407593000000B5FFF7B9F8802070
:20EA9400FFF734F9FFF7EAF800BD70B50E460546FFF7AEF84020FFF729F9FFF7DFF8FFF70F
:20EAB400A7F8C020FFF722F900242878FFF71EF9641CE4B26D1C062CF7D3FFF7CFF8FFF793
:20EAD40097F888203043FFF711F9FFF7C7F870BD10B51D48817B491CC9B28173142921D36B
:20EAF40000228273417B491CC9B24173C37B5B00C373037C5B000374437C5B004374837CAB
:20EB14005B008374C37C5B00C374037D5B000375082907D90121C173017441748174C174B0
:20EB3400017542730949C27B0A70027C4A70427C8A70827CCA70C27C0A71007D487107214E
:20EB54000248FFF7A2FF10BD9C200020BE20002010B508F091FF08491223064ACB5ED054A9
:20EB7400488A401C48821220085E8C2801DB0020488210BD302F0020C820002070B50E4CA4
:20EB94001220205E1021615E884214D00B4D00261020205E285C00F0A9F8208A401C20822A
:20EBB4001020205E8C2800DB26821220205E1021615E8842ECD170BDC8200020302F002081
:20EBD40070B52A4CA07800284ED10120A0700C22A25E0A23E35E2146497A00259A4209D155
:20EBF400002940D0207100220F21142008F01EFF657238E01E4E327B002A02D1F27B002A00
:20EC140031D0002906D160722571002214210F2008F00CFF0A20205E90214843154BA2699F
:20EC3400C018801814490079C8611448C1690129FCD1C561521C0A20A261205E9021484359
:20EC5400185890420FDCA56135736089401C60816089052800D165810E20205E042802DA1E
:20EC7400E089401CE081A57070BD0000C820002098240020602C00200025004000210040C2
:20EC94000248C0890421081AC0B27047C820002070B5114C0125257100220F21142008F099
:20ECB400C5FE0E48042141600D4A00201368FF263604B3430326B60533431360094A116089
:20ECD4006081A08120706070A070E18120826082E0700548C56170BDC8200020002300406D
:20ECF40000E400E000E100E00021004070B5214C0025A179002929D0E2791F49002A88545E
:20ED140004D1031DDBB22372882B30D8521CD2B2E271184B267A9B8AB24214D188182038CF
:20ED3400827F991AC94389B2A182C07F0002101880B2814203D110490120FFF7BFFBA5712F
:20ED54006571E57111E01818A08270BD094901224979552802D0AA2804D008E0002906D1EF
:20ED7400627170BD002902D0A271A58270BDA5716571FAE7C8200020D42B0020F0B5194C1F
:20ED940083B0844625780898002D28D1012525700025842922D80E26A65F002E1EDD0C27E3
:20EDB400E75F90267743104E0090BF193F1D01976046FEF7E1FD0C21615E90225143705064
:20EDD400A089401CA081A089052800D1A5810E20205E002802DDE089401EE081257003B009
:20EDF400F0BD0000C8200020602C002010B51E210448FCF714FA0448292101710121417171
:20EE140010BD0000982400204F20002038B5002400949C4208DA009D045D4D5D6C40009D50
:20EE34005455009C641CF3E738BD000010B5124C01202061606111A0A0611348E061012035
:20EE5400800220620020A06260620CA12163E0620E4961631021A1632064E06352216064F5
:20EE7400E171542121726172A072204608A100F06AF82020A07110BDF03900205465726DDF
:20EE9400696E616C00000000E0350020E03900205345474745520000F7B5064682B0002045
:20EEB4000090F46817463069A04201D9051B02E0B168201A0D1AB0686D1E001BA84200D8A4
:20EED4000546BD4200D33D4670682A4600190399FCF78AF900987F1B4019009003986419D8
:20EEF40040190390B068A04200D10024F460002FD9D1009805B0F0BD0FB41CB50246002000
:20EF140007AC00290BD0491E01910092064B6A462146069800F02EF8009A002111701CBC6B
:20EF340008BC04B018470000FDF301000A7802704B7843708A788270CA78C2700B7903712B
:20EF54004A79427170470A6802608B8883808A798271704702E008C8121F08C1002AFAD138
:20EF740070477047002001E001C1121F002AFBD170470000FFB591B00F460546002606E0CD
:20EF940025280AD0149A139990476D1C761C28780028F5D1304615B0F0BD0024009401219A
:20EFB400F34A029400E004436D1C2B780846203B98401042F7D128782A280ED002212878E9
:20EFD4000246303A092A15D8009A0A235A43303A80180C436D1C0090F1E701CF009000281D
:20EFF40005DA012040030443009840420090022004436D1C28782E2815D1042004436878B0
:20F014006D1C2A280AD101CF6D1C02900BE002990A225143303940186D1C02902878014632
:20F0340030390929F3D928786C2810D006DC4C281AD068280ED06A2817D104E0742813D0B6
:20F054007A2812D110E00120400504430CE00121090501E0032109050C436978814203D184
:20F074000120000524186D1C6D1C287803906E281ED00CDC632831D004DC00288AD05828FB
:20F0940011D1B2E064287BD069280CD178E073282DD004DC6F2870D0702804D1A7E075286B
:20F0B4006CD078286BD0149A13999047761C62E06002400F022807D003280AD0042838689D
:20F0D4000AD006603F1D56E03868F11706604160F8E738680680F5E70670F3E7387869460B
:20F0F40008740020487404A80390012003E0386803900020C0433F1D61070FD5002101E061
:20F114000199491C029A0191914213DA8142F7DB019A0399895C0029F2D10BE0002101E064
:20F134000199491C01918142FADB019A0399895C0029F5D101990098139A401A0090214657
:20F15400149B00F03BF901998019461807E0039803990078491C0391149A139990470198DE
:20F17400401E0190401CF2D12146149B139A009800F014F986196D1C09E741E033E034E0B5
:20F194000A200021049005916002410F022905D001CFC2179446032905D007E0FF1DFF08A6
:20F1B400FF0003CF06E000B2C2179446042902D140B2C1178C4600226146944506DA0A46B1
:20F1D4000021404291418C462D2102E0210504D52B216A461176012103E0E10701D0202123
:20F1F400F7E7019154E00A200BE0102009E01020049000210420044308200591029003E0A6
:20F2140008200021059104906002410F022905D001CF00229446032906D006E0FF1DFF08DE
:20F23400FF0003CF8C4603E080B2042900D1C0B20021019121072BD50399702906D0049A0E
:20F254001021059B4A401A4305D00EE040216A461176012108E06146014306D030216A46BB
:20F2740011760399517602210191049A0821059B4A401A430CD16146014301D1610707D5AF
:20F2940030216A461176012101910299491E02910399582904D037A103910FA90F910DE0E7
:20F2B40039A1F9E76146059B049AFBF769FF039B8C469B5C0F9A521E0F92137061460143B2
:20F2D400F0D10F9807A9081A20300390600704D5012000048443029801E001200290039907
:20F2F400884201DD401A00E0002041180290019809180098401A0090E00306D42146149BFE
:20F31400139A009800F05AF886190020049008E006A9085C149A139990470498401C761C49
:20F33400049001998842F3DBE0030CD52146149B139A009800F042F8861904E0149A302029
:20F3540013999047761C0299481E02900029F5DC08E00F980F990078491C0F91149A1399E9
:20F374009047761C0399481E03900029F1DCFBE609280100303132333435363738396162A2
:20F3940063646566000000003031323334353637383941424344454600000000F8B504462E
:20F3B40000251E461746880404D405E039462020B0476D1C641EF9D52846F8BDFFB504465A
:20F3D400002581B01E46C80301D5302700E02027880404D505E038460399B0476D1C641EDA
:20F3F400F9D5284605B0F0BD4A68002A06D00A68531C0B6010704868401E48607047000070
:20F4140070B5044682B000200D460090019005F0D1FA7D212046C9000D4E48433146FBF7C7
:20F4340085FE6946088020467D213230C90048433146FBF77BFE69464880002D01D00220CB
:20F4540000E000200871084605F038FA02B070BD7102000070B506468AB019A1132006F0CA
:20F47400B9FC0E2269460A72092402A84C72023002250D221B49FBF7B7FE282069460870D1
:20F494004D7000208870C8700871D5204871CC75FF2008764E2048764220887606A80330D9
:20F4B400FFF744FD192302AA0021304604F070FD002803D00CA1132006F08CFC0AB070BDE1
:20F4D4001B5B306D5B495D203A206164766572746973696E6720696E69742E2E2E0A1B5B0C
:20F4F400306D0000552000201B5B313B33316D5B455D203A20656E636F6465206D69626571
:20F5140061636F6E2064617461206661696C65642E200D0A1B5B306D00000000FFB58DB08E
:20F53400002600960196029603960496059606960C460796089609960A96592168460B96CD
:20F55400D21E0170D5B20C221946401CFBF74CFE6846C57304AA69460D9800F099F800968B
:20F5740001960296684603960321067041700A462146FBF739FE102308AA04A96846FFF7A0
:20F5940045FC04AA08A90D9800F082F8E41C1BE0102D01D9102700E02F4600960196029645
:20F5B4003A46214668460396FBF71EFE102308AA04A96846FFF72AFC04AA08A90D9800F0AB
:20F5D40067F8E81BC5B2E419002DE1D1042204A91698FBF709FE11B0F0BDF0B58DB08E46C4
:20F5F4009446179F159E149C139908AD129A069705950291009301920146049603946346E6
:20F614007246012000F062FD002829D1002F29D01699491E6D1EFA0704D048786A78491CE7
:20F6340050406D1C7A081206120E0DD04B786F78521E7B4003438878AF78891C784018430C
:20F65400AD1C1206120EF1D100280BD0002C05DD00203070641E761C002CFADC0E20C043BB
:20F674000DB0F0BD00200DB0F0BDF0B587B0864616468C460CA8B7C8069701AF37C700939B
:20F69400334662467146002000F020FD07B0F0BD30B50C468DB01546014610226846FBF705
:20F6B400A3FD1022214604A8FBF79EFD68464DDF1022284608A9FBF797FD0DB030BD000069
:20F6D400054682B0144617A10120566806F082FB1B4828180BD0012814D1304606F0F2FC4F
:20F6F4000246238817A1132006F0CAFB0AE0304606F0E8FC21880091034617A11320A268AB
:20F7140006F0F4FB06F040FA06F044FA0028FBD100BEBFF34F8F17491548C860BFF34F8FD5
:20F7340000BFFDE71B5B313B33316D4D41494E3A4552524F523A204F6F707320212000001A
:20F75400FFBFFFFF4552524F52206174202573203A2025640A0000004552524E4F20256466
:20F77400206174202573203A2025640A000000000400FA0500ED00E000B583B00021029050
:20F7940000916A4601910248FFF79AFF03B000BD014000000A4B5B68002B07D0002A07D0DD
:20F7B400002805D00068037C002B03D008207047072070470023037441744261184670478F
:20F7D40034210020F0B48C4691075BD1002A59D001272E4C79042160BFF34F8FBFF36F8F33
:20F7F4002B4C4910A1602B4CA1602B494F602B4D2B4C2D682F2600BF00BF00BF00BF00BFF5
:20F8140000BF00BF00BFA54200D000BF013EF2D18F60002723492F26CF6000BF00BF00BFDC
:20F8340000BF00BF00BF00BF00BFA54200D000BF013EF2D18F700B611B4B64461F705F70A8
:20F854009C705A608F600F704F700122174B0F7112051A60164B1C68C025240A24022C437E
:20F874001C60144B1A60144A9060144B1868FF242402A0432C02204318605068C860F0BC31
:20F8940000207047F0BC07207047000080E100E04013014000130140001001401C2200201B
:20F8B4000024F400202100203421002080E200E014E400E000E100E00015014010E400E041
:20F8D400274B5B68002B0DD000280BD0052901D2072070474369002B04D0437C012B03D08C
:20F8F400002302E0082070470B46F0B583B00D46044600266946019317460E70684600F068
:20F9140071F8174842788378511CC9B28B4200D1002103788B421CD01148182340685A43A2
:20F93400801816D0012202700E4A44605268C5608260019A47610261094841706846007815
:20F9540000F070F80120084900050860304603B0F0BD68460426007800F064F8F6E700000D
:20F97400342100200015014000E200E0F8B51B4C6168002929D0002827D04169002924D001
:20F99400002101740546684602270E46017000F029F86178A278481CC0B2824200D1002047
:20F9B4002278824213D018236268594351180ED00F704D6060706846007800F033F80120AC
:20F9D4000749000508603046F8BD0820F8BD68460426007800F026F8F5E70000342100209F
:20F9F40000E200E030B4EFF3108172B60A4A54680123002C05D00370002900D162B630BC0C
:20FA140070475360054B1D68054C254015601C6000220270F0E70000FC20002080E100E004
:20FA3400FC06FFBC08494A68002A0CD000280AD1EFF3108072B60A68044B1A6000224A6048
:20FA5400002800D162B67047FC20002000E100E0F0B583B00C46002809D0012839D0022846
:20FA740003D11FA1132006F0B5F903B0F0BD60682649056828898842F7D125A11320EE6970
:20FA940006F0A8F9207800281BD12C4C6888A080F28B3046E2804030C3892381C08F6081A2
:20FAB400E789A1890191009002972549132006F0A1FA14200090E188A088224B002205F0D2
:20FAD400AFF9304600F098FE284600F095FE03B0F0BD1DA1132006F07DF903B0F0BD000060
:20FAF4001B5B306D5B495D206D69207372763A206D69207265636F72642064656C6574650B
:20FB140020737563632E0A1B5B306D0095FE00001B5B306D5B495D206D69207372763A2046
:20FB34006D69207365727669636520696E697420737563632E0A1B5B306D0000843B0020FE
:20FB540070860200388302001B5B306D5B495D206D69207372763A206D69207265636F72EC
:20FB74006420777269746520737563632E0A1B5B306D000070B53CC814493CC1846843688F
:20FB940002688C604B60124C00250A6025701038006800280CD00188A1804188E18081883D
:20FBB4002181C18861810B487ADF00280DD103E008487BDF002808D10020C043608065704C
:20FBD400054A00210548FFF7E5FD70BDDC2F0020E4200020E82000202180020008810200AA
:20FBF40070B5274C068800232449E289102E13D0244D112E20D0122E35D0502E1BD1C18817
:20FC1400801D914217D14189022914D10C3000F0F3F900280DD11CE084884C80048B8C8110
:20FC3400448BCC81848B0C82C48B4C824B70002A01D100F061FC70BD0020C04348804B7003
:20FC54002868FFF793FE0028F5D0A169002908D170BD2868FFF78AFE0028F9D0A169002921
:20FC7400F6D0884770BD02898A814289CA8182890A82C2894A8200F03FFC70BDE4200020D8
:20FC9400DC2F00200881020030B589B0044605F013F92046FFF7A4FF2288394801253A2A7D
:20FCB40034D00ADC022A3DD03649374B102A0BD0112A0FD0132A59D118E0512A38D0522A7F
:20FCD4001CD0552A52D127E0A28842804D70CD75DD704BE00022D243428000204870032024
:20FCF400D8702AA1132006F075F83FE000231A46852140887FDF002836D137E000231A4610
:20FD140019464088A9DF00282ED12FE0A088132176DF002828D129E0A088132176DF002836
:20FD340022D123E0A088002167DF00281CD11DE01022A11D04A8FBF757FA6846017C0029E5
:20FD540014D0007E042803D0062801D005280DD1022911D068460570FF208330694688806C
:20FD7400A088A8DF002801D0FFF706FD2146134800F0D8F809B030BD022069460870EBE78B
:20FD94001820002098240020482000201B5B306D5B495D203A20424C455F4741505F455601
:20FDB400545F444953434F4E4E45435445442030303030200D0A1B5B306D00007C2400201F
:20FDD400F0B4574D04002DCD96B00AAE2DC67DD000297BD00020C043A0820868A06100253C
:20FDF400A57521460AA863DF002870D1217810A8817401260682A21C14A93046A0DF002884
:20FE140065D101200146684610310795017701200146684610314177817FF9221140891C0D
:20FE340081770195009502950395049506950178102001436846017007A8059023461978DE
:20FE540010A88173032181810120014608A81031089501700120014608A810314170817852
:20FE7400F7201140891C0140EF200140314308A8817013A80E9008A80F9010951195129521
:20FE940010A8068045801427878058880C330EAA6946A2DF00283CD1009501950295039573
:20FEB400049505956846069501780C20014368460170217808A881700221684601840120F9
:20FED4000146234668461031079501E024E020E0017701200146684610314177817FF9204E
:20FEF4000140F720891C0140EF20014031436846817708A80E9007A80F90109511951295B8
:20FF140010A80680458087805888231D0EAA6946A2DF16B0F0BC704716B0F0BC0E2070473B
:20FF34004C84020010B500281BD0002919D00A88102A17D0112A17D0502A12D104468A1DCE
:20FF5400C888238A1231984202D15389022B0FD0A388984205D1A369002B02D05289204693
:20FF7400984710BD898801E00021C943818210BD084600F041F8002800D00120A07510BD60
:20FF9400F8B506461B481A4D03460446A97A3B304B332B3407463D290FD0102231461846F3
:20FFB400FBF722F9102231463846FBF71DF9102231462046FBF718F90EE00146102218461A
:20FFD400FBF712F9102221463846FBF70DF9102231462046FBF708F93D20A87200F082FB1B
:20FFF40000F09AFB00F0AAFB00F096FBF8BD0000D8240020B82400204178027808021043F5
:020000040002F8
:20001400C007C00F7047000003B412490246888A114B84B0984209D08B7D002B06D06B4616
:200034009B8A142B05D9072006B07047082006B07047002300930193029303938B89694609
:200054000B8005A903920291012269468A70A6DF06B070477C240020FFFF0000F8B50D46AF
:20007400461C00206946087001246846FFF7BAFC134A10682860116850689368081A1D1A62
:20009400701C6D1CA84212D9002D0ED00D480E4C0088246880051940800DA4028900204397
:2000B4008918C8601068401C1060002401E08819106068460078FFF7B5FC2046F8BD000021
:2000D400C83100202C81020048210020FFB597B02698001F0D2841D22698C0073ED11A9855
:2000F400C01F07283AD2FF2121980902884235D81A980F21081AC4B200206946087021999C
:20011400002900D001218901084326996D46891E4908C9000843611E0843129169460870C9
:20013400681C1A9A1999FBF75FF8239B002C13D00021E00703D06846C3731B0A012162083B
:200154000AD00F200E26471AEB55771A1B0AEB551B0A891C521EF6D1002B03D00C20C04389
:200174001BB0F0BD002004900590069007906A46137C127804A853406A4613745378294604
:20019400072247788E785F4047708778CB7877408770801C891C521EF3D16846C17FC07B79
:2001B400102241406846C17704A90B46189804F0CDFA0028D4D12198002877D00020039081
:2001D400209F219D009001900290290A68460170219D45700E2D01D22E4600E00E26324608
:2001F4003946801CFBF700F8AD1BB81969460C900A7C0B46097804A84A401A745E780722E7
:2002140047789978774047708778DE784F408770801C521E9B1C002AF2D16846C17FC07BD8
:20023400102241406846C17704A90B46189804F08DFA002894D1002D38D0102D01D91020DF
:2002540000E028460F900020009002900190039068460F9A0C99FAF7C7FF69460B7C0A78CC
:2002740004A853400B744B78072247788E785F4047708778CB7877408770801C891C521E04
:20029400F3D16846C17FC07B102241406846C17704A90B46189804F059FA00288AD10F98A5
:2002B4000C992D1A08180C90002DC6D108A91298087008AD681C1A9A1999FAF795FF1A9815
:2002D40021462818401CFAF7AAFF012008A9C87323980E9022980C90249810900E98002887
:2002F4007ED0102801D9102500E00546179800282AD102900090019003902A4668460C994F
:20031400FAF772FF69460A7C0B7804A85A400A744B78072247788E785F4047708778CB78A2
:2003340077408770801C891C521EF3D16946C87FC97B102248406946C87704A90B461898F6
:2003540004F004FA0028A9D108A96B461022189804F0FCF90028A1D1002D21D00C981099C3
:20037400401E564A491E6A44EB0706D043785678401C73404B70491C521C6B081B061B0EAB
:200394000ED0467857787E404E7086789778801C7E408E70891C921C5B1E1B061B0EF0D126
:2003B400179801282DD1002001900090029003902A4668461099FAF717FF69460A7C0B7867
:2003D40004A85A400A744B78072247788E785F4047708778CB7877408770801C891C00E02D
:2003F4002CE0521EF1D16846C17FC07B102241406846C17704A90B46189804F0A7F900287F
:20041400A1D11098401910900C9840190C900E98401B0E900020002C0CD908A90F252A1A23
:200434008B5C5B1C1B061B0E8B5403D1401CC0B2A042F4D30E98002800D052E7002C12D0F1
:200454000020E10702D008A9C873012061080AD000230F2608AA0E24351A5355251A801C50
:200474005355491EF8D108A96B461022189804F06DF90028C4D169460B7C0A7804A853403E
:200494000B744B78072245788C785D4045708578CB7865408570801C891C521EF3D16846CD
:1C04B400C17FC07B41406846C17704A9269A2598FAF79AFE00201BB0F0BD0000FF
:2004D40010B5024602A1012005F0AAFC10BD00001B5B313B33316D4D41494E3A4552524F85
:2004F400523A636F6E6E20706172616D206572726F722025580A0000F8B51748194C428851
:20051400164800260388164D61699A420BD34088824208D80120002903D06A46107068466A
:2005340088472E70F8BD2878002804D00029F8D068460670F4E7687800280BD0A1680A48BB
:2005540000220068FFF7BCF90028EAD0A1690029E6D1E6E76168F2E7F0200020E8200020BF
:20057400E4200020DC2F0020088102000023DB43002901D0022A01DA1846704701608160F4
:200594004260C160002101610846704770B58EB00D460446164620216846FAF740FE14214D
:2005B40008A8FAF73CFE002C17D0102221466846FAF71AFE04A8002D12D010222946FAF79C
:2005D40013FE08AA2021684602F0F3F9102208A93046FAF709FE0EB070BD10220249E6E7F1
:2005F40010220149EBE700005C84020001218161704770477047704738B50446007A0D46D3
:2006140000281BD0002168460170FFF7EBF9A07962792168504341182846FAF7E5FDA079D6
:200634002179401CFAF782FDA171207A401E207268460078FFF7F6F9002038BD022038BD6D
:2006540010B5C9B204F08EFD012010BD38B504460D46007A2179884201D1042038BD002165
:2006740068460170FFF7BEF9E07962792168504340182946FAF7B8FDE0792179401CFAF79D
:2006940055FDE171207A401C207268460078FFF7C9F9002038BD12280ED202007A441279C2
:2006B400921897440809090A0E0C091214160909181C0909101A00207047012070470220CB
:2006D40070470420704705207047062070470720704708207047092070470B2070470A2012
:2006F4007047000010B57720044A0121C00200F0C5F8002801D0FFF73FF810BD07060200F2
:2007140010B5FF2277210132C9020248FAF76CFD002010BDB824002030B4074C20684007B6
:2007340007D52068C00703D048DF2068C007FBD1206830BC704700006820002010B5772036
:20075400054B40220549C00200F0E8F8002801D0FFF712F810BD000007060200B824002022
:2007740010B5054A412100F089F8041E01D0FFF703F8204610BD00007DE0010010B50B4CED
:20079400206840070ED52068C00703D048DF2068C007FBD12068800704D50A242046FEF7BE
:2007B400EBFF00E00024204610BD00006820002010B59208044B00F0B1F8041E01D0FEF72D
:2007D400DBFF204610BD00007DE0010010B581600C46C280002181761346C182A522194686
:2007F4002046FAF715FD002010BD8160C2800021C17608467047000010B5002823D0124BD2
:200814000022001F196803E0814203D80A4649680029F9D1002A0AD01368841A9C4204D1BD
:20083400006818181060104602E0506000E01860002907D002680B1A934203D10B68D218C7
:2008540002604968416010BD2022002030B40A4A13685B085B00136002231468002906D01D
:200874001C4314604268002A03D030BC10479C43F7E730BC7047000068200020F0B50446B0
:2008940087B00020224F0090386816460D4640071DD53868800702D50A2007B0F0BD386838
:2008B400012108433860AAB233462146194800F06DF800900028386805D0400840003860E0
:2008D400009807B0F0BD0121084338601DE0A001000C0127BF020190204605F04FFCE4193C
:2008F4006D1EF9D1002E10D00B4A91681068D2680491029003960592694601980882A001B7
:20091400000C4882002102A8B047009807B0F0BD682000202C220020E8800200FFB5194C96
:2009340085B020681D4617460026400717D52068800702D50A2009B0F0BD20680122104359
:20095400206000930A46BBB20F48059900F086F80600F0D120680121084320600EE0059889
:2009740005F022FC002D09D0002000900390059802900195684687810021A847304609B04D
:20099400F0BD0000682000202C220020F8B5274E9C463378DC070DD000280DD0244C8442D6
:2009B4000AD8244C844207D9002907D08C0507D00620F8BD0120F8BD0220F8BD0320F8BD63
:2009D40004688C4204D8940245686418AC4201D90520F8BD002A1FD0174D6F6E042F1DD012
:2009F4002C6EE419042C00D3241F7F1C6F6618277C4364190025A560E560256165616546B5
:200A140065602060022089012072090CA18159072282890F04D007E00420F8BD0720F8BDFC
:200A34000343337005F0AAFC0020F8BD042100202C2200204C2200205430002010B5084651
:200A540005F0F4FC10BD00000348012201781143017000207047000004210020F8B5284CE7
:200A74002778FC0711D0002811D0264D85420ED8254D85420BD9002A0BD0002909D0144638
:200A94000C43A40707D00620F8BD0120F8BD0220F8BD0320F8BD04688C4204D89D004468B2
:200AB4006D18AC4201D20520F8BD002B1DD0174D6E6E042E1BD02C6EA419042C00D3241FF0
:200AD400761C6E661826744364190025A5606561069E6660206001252572E260216108487F
:200AF4007907A382890F04D008E00420F8BD0720F8BD02210F43077005F040FC0020F8BD42
:200B1400042100202C2200204C22002054300020F0B56C4C1822216E6B4D51430B192978A5
:200B340085B08A077ED50122FD270026022802D0032844D17FE06E70187A012802D00228EB
:200B54003DD13DE0988AD98A401AFF2801DC80B201E0FF200130081880B2D882998A884277
:200B74002DD10096019602960396187A0021012802D0022811D107E068460670186902902D
:200B94009A8A6846828108E0684602709889DA89821A684602819A8942815868019018685C
:200BB400826868469047606E401E606602D1287838402870206E401C2066042871D07DE003
:200BD4009889401C9881D889401C80B2D881198A884273D10096019602960396187A002161
:200BF400012802D0022811D107E068460670186902909A8A6846828108E0684602709889BE
:200C1400DA89821A684602819A894281586801901868826868469047606E401E606604D1A3
:200C3400287800E03FE038402870206E401C2066042836D042E06878401CC0B2687003287C
:200C54003CD96E70082084460096019602960396187A012802D0022810D107E0684606709A
:200C740018690290998A6846818107E0684602709A89D889111A6846018142815868019080
:200C940018686146826868469047606E401E606602D1287838402870206E401C2066042899
:200CB4000CD126660AE0480708D5FB2001402970606E002802D002200143297005F05EFB97
:200CD40005B0F0BD5430002004210020F0B57D27FF00434D83B00C46002818D001286AD0E5
:200CF400022812D1A0883F4948433946FAF71EFA054660883B4948433946FAF717FA024605
:200D14002B4639A1132005F0BBF803B0F0BD4548002642680168A0890B0C98420ED92088CA
:200D340003F080FE0646320008D061213EA00191009013464BA1132005F016F9208868804A
:200D5400320008D0652138A001910090334645A1132005F009F951A1132005F03BF80623F6
:200D7400A21C59A1132004F0E7FFA0891D4948433946FAF7DBF9064660891A49484339469A
:200D9400FAF7D4F90246334650A1132005F078F800F028F9002801D0012300E000236A8913
:200DB400A9886888FAF7F4FC29690029ADD00120884703B0F0BD0020C0436880FBF780FC1C
:200DD40003F0DCF8FBF70AFCA27850A1132005F027F829690029ECD00020884703B0F0BD28
:200DF400843B0020E20400001B5B306D5B495D206D69207372763A2075706461746520692F
:200E14006E74657276616C206D61783A202564206D732C206D696E3A202564206D730A1BE1
:200E34005B306D00288302002E2E5C2E2E5C2E2E5C6D696A69615F626C655F6C6962735CD0
:200E54006D696A69615F70726F66696C65735C6D695F736572766963655F73657276657239
:200E74002E6300001B5B313B33316D5B455D206D69207372763A204572726F7220636F64F2
:200E94006520307825303458203C25643E2E202025733A25640A1B5B306D00001B5B313B45
:200EB40033336D5B575D206D69207372763A20436F6E6E65637465642050656572204D4184
:200ED400433A0A1B5B306D00000000001B5B306D5B495D206D69207372763A2064656661F5
:200EF400756C7420696E74657276616C206D696E3A202564206D732C206D61783A20256448
:200F1400206D730A1B5B306D000000001B5B313B33336D5B575D206D69207372763A2044CD
:200F34006973636F6E6E65637420726561736F6E2025582E0A1B5B306D000000402812D1FC
:200F540010B58A880B7B886807490C89944203D11946FAF7F9FB10BD49899142FBD11946C0
:200F7400FAF7E8FB10BD7047843B002038B5194C6088211D05F0C2FE174900280FD0086822
:200F940089886268890041185088C01C83B203202070002000901148FFF760FD38BD6088AB
:200FB40002010F4810188289002A0AD005202070022088800968002301220848FFF7E6FCCE
:200FD40038BD4168002301220448FFF7DFFC0421217038BDB8310020182100203C22002071
:200FF40098310020024800780007C00F70470000F8210020F8B51E4D2878002836D0E86836
:20101400002600280CD00024687800282ED1684652DF052806D0002806D0FEF7ADFB0BE0FF
:201034000124F1E7012607E0009804F0DDFB2969002901D000988847002C13D16878002822
:2010540014D1688869460880A86861DF052804D0002804D0FEF790FB04E0012402E0E96867
:20107400A8688847002ECFD0002CE5D0F8BD00004C21002000258CB002952846039505F09A
:2010940005F8ECA1132004F0A5FEEFA3F1A2F4A1132004F0F5FE0023F94A11211846FEF729
:2010B40091FB002801D0FEF767FBF64A0121F648FEF770FB002801D0FEF75EFBF34A00219B
:2010D400F348FEF767FB002809D09822F1A10346019200911A46F3A1132004F045FFEA481F
:2010F4000023806800904822FB49684606F074FD002801D0FEF740FB04AA0121002006F06F
:2011140055FD002801D0FEF737FB04276846078204A806F0C9FC002801D0FEF72DFBEF4833
:2011340006F0B8FC002801D0FEF726FBEC4806F0A5FD002801D0FEF71FFBFCF701FCFCF72B
:20115400CFF9FDF753FEFDF7A3FDFCF799FA04F017FBE44803260660E34C0820E060830574
:20117400A360E349E148E34A096800BF00BF00BF00BF00BF00BF00BF00BF914200D000BF0B
:201194000138F2D1E3600146684601740D22DA4904A87CDF002801D0FEF7EEFA00950C21A1
:2011B4006846019501801821418085805A21C1807ADF002801D0FEF7DFFAD0480090694624
:2011D400CF48FEF7FDFD002801D0FEF7D5FA0F20C0030590400006900495079508950321E5
:2011F40068460177C58308A80570C6480990C6480A9004A8FEF7BEFC002801D0FEF7BCFAFA
:201214000022C2490A20FBF77BF9A020FBF7A0F902F01EFC0020FEF71DF9FF202D3002F00D
:2012340087FF020008D0BA499AA00191009013469CA1132004F098FE93480022A42100685E
:20125400FEF73EFBB348056045608560C56002A801300490FAF7A0FBFDF790FCFDF7B0FC22
:20127400AD4C2078002802D0FCF730F92570AB4CE07D012814D1AAA1032004F0ABFDAF48BB
:20129400012101701021AE48FDF79EF81022AC49AC48F9F7A9FFAB49AB4804F0ABF8E5756B
:2012B400FBF72AFFE07A00287ED0E572FBF700FE984EA6483168028889183160428871681C
:2012D400891871608288B1688918B160C088F1680818F060FCF7DAF9A07B002805D00120A3
:2012F400E073FF2091309A4904E099494869002802DD401E486100E0E573A573607D0028EA
:2013140008D094480122817811438170FF2091308F4904E08E498869002802DD401E8861F2
:2013340004E08C48817849084900817065758A480178CA0704D00122A274C822844B04E0BD
:20135400834BDA69002A02DD521EDA6100E0A574490849000170890702D50121E17400E0F2
:20137400E5747B4F3989491C89B23981042935D33D81794879788078884202D001216176E8
:2013940078703088010973480170B1880909417035607560B560F560FDF772FC002802D136
:2013B400E07B002824D000E018E00520387001262673FCF765FE68488078002833D04A4981
:2013D40008208860607A00282ED0BD80A6726572A07A002802D0F888401CF880607E00284F
:2013F40023D0607E012821D0607E02281FD0F5E0062669460E7257490498FDF797FD387853
:20141400401CC0B23870052812D33D7069460E72012102A801910090002364220721202055
:20143400FDF7D6F9C3E7A7E0AAE0D8E0B3E0CFE094E000001B5B306D5B495D203A20655B5E
:20145400324A1B5B306D000031373A34353A3130000000004D6172203131203230323000BD
:201474001B5B306D5B495D203A20436F6D70696C6564202025732025730A1B5B306D0000F0
:201494009C220020D1620200BC800200A57C0200C08002002E2E5C2E2E5C2E2E5C6D616923
:2014B4006E2E63001B5B313B33316D5B455D203A204572726F7220636F646520307825300D
:2014D4003458203C25643E2E202025733A25640A1B5B306D00000000342400209DFC010051
:2014F400E57C02000C0700500005005050C300001C2200200024F40055200020FD6102003F
:201514007C2400201D620200D5040200093902003A0200008C2200204E20002098240020E3
:201534001B5B306D4D41494E3A494E464F3A636F6E6E656374206F6B200D0A0067200020FD
:201554001E2B0020CC290020EC29002094200020182000204F2000204820002004206946AE
:201574000872012102A8019100900023652205212020FDF72DF91AE71A480821C16021E710
:20159400B888401C80B2B880322800D220E73220B880A5721CE714480521002249044068C1
:2015B400FEF78EF90120FDF755FF104E3078022814D10F48FEF7E4FC03200E49307008705F
:2015D40001235C22002121200095FBF7FFFE05E0A120FAF7BDFF0020FDF73CFF657604F0FE
:2015F400D9FA37E600050050BC80020067200020DC29002065200020F0B50B30C108C90071
:20161400144F0026144A0FE003688B420BD38B4205D95C1A4318456830C3083B00E04368E0
:20163400136002C004E0021D10680028ECD13046002803D13868002801D00020F0BD064AD9
:2016540006481060064A121AD208D20044C001203860D7E724220020202200209C3D002054
:2016740098410020F0B504469BB00E460846F9F7FFFD00BA020AF07812020243301D199216
:20169400F9F7F6FD00BA020AF07912020243304608301892F9F7ECFD00BA070AF07A3F0224
:2016B400074330460C301297F9F7E2FD00BA030AF07B1B020343304610300E93F9F7D8FDF1
:2016D40000BA030AF07C1B020343304614300D93F9F7CEFD00BA020AF07D12020243304649
:2016F40018300C92F9F7C4FD00BA020AF07E1202024330461C300B92F9F7BAFD00BA030AE5
:20171400F07F1B0203433046203007460A93F9F7AFFD00BA000AF978000208430990304606
:201734002430F9F7A5FD00BA000AF97900020843089030462830F9F79BFD00BA000AF97A07
:2017540000020843079030462C30F9F791FD00BA000AF97B00020843069030463030F9F760
:2017740087FD00BA030AF87C1B020343304634300593F9F77DFD00BA020AF87D12020243C3
:20179400304638301692F9F773FD00BA050AF87E2D02054330463C30F9F76AFDF97FA268DE
:2017B40013920492E6681196226900BA1092000A000294466769049A1B23DA4163467B40ED
:2017D400084317973340A1697B400F91D318199A51185A18FE4953180222D6419E461B229D
:2017F400D341624603965640049A164062465640189A9E19D219B2185718049A0223DA414D
:2018140001971B26F741039B16465E4073461E40039B5E40BE19129F6346FB18F3185F18F2
:2018340073460226F3419E463E461B23DE41734653400297019F3B405340F718039E0E9BCE
:201854009B19FB185E180396019B0226F3419C46039E1B23DE41634677467B40029F1F40A5
:2018740073465F400D9BF6199A18B21852180492029F0222D741049A1B23DA4102976346B3
:20189400039E5F4037405F40D6190C9A029F7244B2185318039E0222D64100931B22D341FD
:2018B400B646049A7E4016407E400B9A9E196244B2185718049A0223DA41944601971B22E0
:2018D400D741624676467240009B1A407240BE18029F0A9BDA19B21856180296009E02227E
:2018F400D6410096029E1B22D641009B6246019F53403B405340099AF31872449A1857182A
:201914000397019F0222D741039A1B26F241009E3B467740029E3740009E7740D719089E54
